{
  "contractName": "RefugeeRegister",
  "abi": [
    {
      "constant": false,
      "inputs": [
        {
          "name": "refugeeId",
          "type": "string"
        },
        {
          "name": "refugeePublicKey",
          "type": "string"
        },
        {
          "name": "ipfsHash",
          "type": "string"
        }
      ],
      "name": "createRefugee",
      "outputs": [],
      "payable": false,
      "stateMutability": "nonpayable",
      "type": "function"
    },
    {
      "constant": true,
      "inputs": [
        {
          "name": "id",
          "type": "uint256"
        }
      ],
      "name": "getRefugeeId",
      "outputs": [
        {
          "name": "",
          "type": "string"
        }
      ],
      "payable": false,
      "stateMutability": "view",
      "type": "function"
    },
    {
      "constant": true,
      "inputs": [
        {
          "name": "",
          "type": "uint256"
        }
      ],
      "name": "refugees",
      "outputs": [
        {
          "name": "refugeeId",
          "type": "string"
        },
        {
          "name": "refugeePublicKey",
          "type": "string"
        },
        {
          "name": "active",
          "type": "bool"
        },
        {
          "name": "ipfsHash",
          "type": "string"
        }
      ],
      "payable": false,
      "stateMutability": "view",
      "type": "function"
    },
    {
      "inputs": [],
      "payable": false,
      "stateMutability": "nonpayable",
      "type": "constructor"
    }
  ],
  "bytecode": "0x6060604052341561000f57600080fd5b336000806101000a81548173ffffffffffffffffffffffffffffffffffffffff021916908373ffffffffffffffffffffffffffffffffffffffff1602179055506107518061005e6000396000f300606060405260043610610057576000357c0100000000000000000000000000000000000000000000000000000000900463ffffffff16806321b8ff9c1461005c57806369fa55911461013f5780639a180f7e146101db575b600080fd5b341561006757600080fd5b61013d600480803590602001908201803590602001908080601f0160208091040260200160405190810160405280939291908181526020018383808284378201915050505050509190803590602001908201803590602001908080601f0160208091040260200160405190810160405280939291908181526020018383808284378201915050505050509190803590602001908201803590602001908080601f016020809104026020016040519081016040528093929190818152602001838380828437820191505050505050919050506103b1565b005b341561014a57600080fd5b610160600480803590602001909190505061047e565b6040518080602001828103825283818151815260200191508051906020019080838360005b838110156101a0578082015181840152602081019050610185565b50505050905090810190601f1680156101cd5780820380516001836020036101000a031916815260200191505b509250505060405180910390f35b34156101e657600080fd5b6101fc6004808035906020019091905050610546565b60405180806020018060200185151515158152602001806020018481038452888181546001816001161561010002031660029004815260200191508054600181600116156101000203166002900480156102975780601f1061026c57610100808354040283529160200191610297565b820191906000526020600020905b81548152906001019060200180831161027a57829003601f168201915b505084810383528781815460018160011615610100020316600290048152602001915080546001816001161561010002031660029004801561031a5780601f106102ef5761010080835404028352916020019161031a565b820191906000526020600020905b8154815290600101906020018083116102fd57829003601f168201915b505084810382528581815460018160011615610100020316600290048152602001915080546001816001161561010002031660029004801561039d5780601f106103725761010080835404028352916020019161039d565b820191906000526020600020905b81548152906001019060200180831161038057829003601f168201915b505097505050505050505060405180910390f35b600180548060010182816103c5919061058f565b91600052602060002090600402016000608060405190810160405280878152602001868152602001600115158152602001858152509091909150600082015181600001908051906020019061041b9291906105c1565b5060208201518160010190805190602001906104389291906105c1565b5060408201518160020160006101000a81548160ff02191690831515021790555060608201518160030190805190602001906104759291906105c1565b50505050505050565b610486610641565b60018281548110151561049557fe5b90600052602060002090600402016000018054600181600116156101000203166002900480601f01602080910402602001604051908101604052809291908181526020018280546001816001161561010002031660029004801561053a5780601f1061050f5761010080835404028352916020019161053a565b820191906000526020600020905b81548152906001019060200180831161051d57829003601f168201915b50505050509050919050565b60018181548110151561055557fe5b9060005260206000209060040201600091509050806000019080600101908060020160009054906101000a900460ff169080600301905084565b8154818355818115116105bc576004028160040283600052602060002091820191016105bb9190610655565b5b505050565b828054600181600116156101000203166002900490600052602060002090601f016020900481019282601f1061060257805160ff1916838001178555610630565b82800160010185558215610630579182015b8281111561062f578251825591602001919060010190610614565b5b50905061063d91906106b8565b5090565b602060405190810160405280600081525090565b6106b591905b808211156106b1576000808201600061067491906106dd565b60018201600061068491906106dd565b6002820160006101000a81549060ff02191690556003820160006106a891906106dd565b5060040161065b565b5090565b90565b6106da91905b808211156106d65760008160009055506001016106be565b5090565b90565b50805460018160011615610100020316600290046000825580601f106107035750610722565b601f01602090049060005260206000209081019061072191906106b8565b5b505600a165627a7a72305820bd5f79e6fa684c73bc172bcfd22d5f4f7a34603a741d21c4025849c8faccbafd0029",
  "source": "pragma solidity ^0.4.18;\n\ncontract RefugeeRegister {\n    address creator;\n\n    struct Refugee {\n        string refugeeId;\n        string refugeePublicKey;\n        bool active;        \n        string ipfsHash;\n    }\n\n    ///  map refugee id map to addressess\n    Refugee[] public refugees;\n    \n    function RefugeeRegister() public {\n        creator = msg.sender;\n    }\n\n    function createRefugee(string refugeeId, string refugeePublicKey, string ipfsHash) public {\n        refugees.push(Refugee(refugeeId, refugeePublicKey, true, ipfsHash));       \n    }\n\n    function getRefugeeId(uint id) public constant returns (string) {\n        return (refugees[id].refugeeId);\n    }\n}",
  "sourcePath": "/mnt/d/unlock-the-block/DCentral/contracts/RefugeeRegister.sol",
  "compiler": {
    "name": "solc",
    "version": "0.4.18+commit.9cf6e910.Emscripten.clang"
  },
  "schemaVersion": "1.0.1",
  "updatedAt": "2018-01-31T18:52:45.095Z"
}