{
  "contractName": "RefugeeRegister",
  "abi": [
    {
      "constant": false,
      "inputs": [
        {
          "name": "_refugeeId",
          "type": "string"
        },
        {
          "name": "_refugeePublicKey",
          "type": "string"
        }
      ],
      "name": "createRefugee",
      "outputs": [],
      "payable": false,
      "stateMutability": "nonpayable",
      "type": "function"
    },
    {
      "constant": true,
      "inputs": [],
      "name": "getRefugeeId",
      "outputs": [
        {
          "name": "",
          "type": "string"
        }
      ],
      "payable": false,
      "stateMutability": "view",
      "type": "function"
    },
    {
      "constant": true,
      "inputs": [
        {
          "name": "",
          "type": "uint256"
        }
      ],
      "name": "refugees",
      "outputs": [
        {
          "name": "refugeeId",
          "type": "string"
        },
        {
          "name": "refugeePublicKey",
          "type": "string"
        },
        {
          "name": "active",
          "type": "bool"
        },
        {
          "name": "ipfsHash",
          "type": "string"
        }
      ],
      "payable": false,
      "stateMutability": "view",
      "type": "function"
    },
    {
      "inputs": [],
      "payable": false,
      "stateMutability": "nonpayable",
      "type": "constructor"
    }
  ],
  "bytecode": "0x6060604052341561000f57600080fd5b336000806101000a81548173ffffffffffffffffffffffffffffffffffffffff021916908373ffffffffffffffffffffffffffffffffffffffff16021790555061070e8061005e6000396000f300606060405260043610610057576000357c0100000000000000000000000000000000000000000000000000000000900463ffffffff168063220bd2881461005c57806333193c96146100fc5780639a180f7e1461018a575b600080fd5b341561006757600080fd5b6100fa600480803590602001908201803590602001908080601f0160208091040260200160405190810160405280939291908181526020018383808284378201915050505050509190803590602001908201803590602001908080601f01602080910402602001604051908101604052809392919081815260200183838082843782019150505050505091905050610360565b005b341561010757600080fd5b61010f61043c565b6040518080602001828103825283818151815260200191508051906020019080838360005b8381101561014f578082015181840152602081019050610134565b50505050905090810190601f16801561017c5780820380516001836020036101000a031916815260200191505b509250505060405180910390f35b341561019557600080fd5b6101ab6004808035906020019091905050610503565b60405180806020018060200185151515158152602001806020018481038452888181546001816001161561010002031660029004815260200191508054600181600116156101000203166002900480156102465780601f1061021b57610100808354040283529160200191610246565b820191906000526020600020905b81548152906001019060200180831161022957829003601f168201915b50508481038352878181546001816001161561010002031660029004815260200191508054600181600116156101000203166002900480156102c95780601f1061029e576101008083540402835291602001916102c9565b820191906000526020600020905b8154815290600101906020018083116102ac57829003601f168201915b505084810382528581815460018160011615610100020316600290048152602001915080546001816001161561010002031660029004801561034c5780601f106103215761010080835404028352916020019161034c565b820191906000526020600020905b81548152906001019060200180831161032f57829003601f168201915b505097505050505050505060405180910390f35b60018054806001018281610374919061054c565b916000526020600020906004020160006080604051908101604052808681526020018581526020016001151581526020016020604051908101604052806000815250815250909190915060008201518160000190805190602001906103da92919061057e565b5060208201518160010190805190602001906103f792919061057e565b5060408201518160020160006101000a81548160ff021916908315150217905550606082015181600301908051906020019061043492919061057e565b505050505050565b6104446105fe565b6001600081548110151561045457fe5b90600052602060002090600402016000018054600181600116156101000203166002900480601f0160208091040260200160405190810160405280929190818152602001828054600181600116156101000203166002900480156104f95780601f106104ce576101008083540402835291602001916104f9565b820191906000526020600020905b8154815290600101906020018083116104dc57829003601f168201915b5050505050905090565b60018181548110151561051257fe5b9060005260206000209060040201600091509050806000019080600101908060020160009054906101000a900460ff169080600301905084565b815481835581811511610579576004028160040283600052602060002091820191016105789190610612565b5b505050565b828054600181600116156101000203166002900490600052602060002090601f016020900481019282601f106105bf57805160ff19168380011785556105ed565b828001600101855582156105ed579182015b828111156105ec5782518255916020019190600101906105d1565b5b5090506105fa9190610675565b5090565b602060405190810160405280600081525090565b61067291905b8082111561066e5760008082016000610631919061069a565b600182016000610641919061069a565b6002820160006101000a81549060ff0219169055600382016000610665919061069a565b50600401610618565b5090565b90565b61069791905b8082111561069357600081600090555060010161067b565b5090565b90565b50805460018160011615610100020316600290046000825580601f106106c057506106df565b601f0160209004906000526020600020908101906106de9190610675565b5b505600a165627a7a723058201179929d631e784ac88ee0920a4de55f3b026ee9fd2a01c24225f8382514b8130029",
  "source": "pragma solidity ^0.4.18;\r\n\r\ncontract RefugeeRegister {\r\n\r\n    address creator;\r\n\r\n    struct Refugee {\r\n        string refugeeId;\r\n        string refugeePublicKey;\r\n\t\tbool active;        \r\n        string ipfsHash;\r\n    }\r\n\r\n\r\n    Refugee[] public refugees;\r\n    \r\n    function RefugeeRegister() public {\r\n        creator = msg.sender;\r\n    }\r\n\r\n\r\n    function createRefugee(string _refugeeId, string _refugeePublicKey) public {\r\n        refugees.push(Refugee(_refugeeId, _refugeePublicKey, true, \"\"));       \r\n    }\r\n\r\n\r\n    function getRefugeeId() public constant returns (string) {\r\n        return (refugees[0].refugeeId);\r\n    }\r\n}",
  "sourcePath": "C:\\Users\\T460\\Documents\\Hackathon\\DCentral\\DCentral\\contracts\\RefugeeRegister.sol",
  "compiler": {
    "name": "solc",
    "version": "0.4.18+commit.9cf6e910.Emscripten.clang"
  },
  "schemaVersion": "1.0.1",
  "updatedAt": "2018-01-30T10:09:55.140Z"
}