{
  "contractName": "RefugeeRegister",
  "abi": [
    {
      "constant": false,
      "inputs": [
        {
          "name": "refugeeId",
          "type": "string"
        },
        {
          "name": "refugeePublicKey",
          "type": "string"
        }
      ],
      "name": "createRefugee",
      "outputs": [],
      "payable": false,
      "stateMutability": "nonpayable",
      "type": "function"
    },
    {
      "constant": true,
      "inputs": [
        {
          "name": "id",
          "type": "uint256"
        }
      ],
      "name": "getRefugeeId",
      "outputs": [
        {
          "name": "",
          "type": "string"
        }
      ],
      "payable": false,
      "stateMutability": "view",
      "type": "function"
    },
    {
      "constant": true,
      "inputs": [
        {
          "name": "",
          "type": "uint256"
        }
      ],
      "name": "refugees",
      "outputs": [
        {
          "name": "refugeeId",
          "type": "string"
        },
        {
          "name": "refugeePublicKey",
          "type": "string"
        },
        {
          "name": "active",
          "type": "bool"
        },
        {
          "name": "ipfsHash",
          "type": "string"
        }
      ],
      "payable": false,
      "stateMutability": "view",
      "type": "function"
    },
    {
      "inputs": [],
      "payable": false,
      "stateMutability": "nonpayable",
      "type": "constructor"
    }
  ],
  "bytecode": "0x6060604052341561000f57600080fd5b336000806101000a81548173ffffffffffffffffffffffffffffffffffffffff021916908373ffffffffffffffffffffffffffffffffffffffff16021790555061071d8061005e6000396000f300606060405260043610610057576000357c0100000000000000000000000000000000000000000000000000000000900463ffffffff168063220bd2881461005c57806369fa5591146100fc5780639a180f7e14610198575b600080fd5b341561006757600080fd5b6100fa600480803590602001908201803590602001908080601f0160208091040260200160405190810160405280939291908181526020018383808284378201915050505050509190803590602001908201803590602001908080601f0160208091040260200160405190810160405280939291908181526020018383808284378201915050505050509190505061036e565b005b341561010757600080fd5b61011d600480803590602001909190505061044a565b6040518080602001828103825283818151815260200191508051906020019080838360005b8381101561015d578082015181840152602081019050610142565b50505050905090810190601f16801561018a5780820380516001836020036101000a031916815260200191505b509250505060405180910390f35b34156101a357600080fd5b6101b96004808035906020019091905050610512565b60405180806020018060200185151515158152602001806020018481038452888181546001816001161561010002031660029004815260200191508054600181600116156101000203166002900480156102545780601f1061022957610100808354040283529160200191610254565b820191906000526020600020905b81548152906001019060200180831161023757829003601f168201915b50508481038352878181546001816001161561010002031660029004815260200191508054600181600116156101000203166002900480156102d75780601f106102ac576101008083540402835291602001916102d7565b820191906000526020600020905b8154815290600101906020018083116102ba57829003601f168201915b505084810382528581815460018160011615610100020316600290048152602001915080546001816001161561010002031660029004801561035a5780601f1061032f5761010080835404028352916020019161035a565b820191906000526020600020905b81548152906001019060200180831161033d57829003601f168201915b505097505050505050505060405180910390f35b60018054806001018281610382919061055b565b916000526020600020906004020160006080604051908101604052808681526020018581526020016001151581526020016020604051908101604052806000815250815250909190915060008201518160000190805190602001906103e892919061058d565b50602082015181600101908051906020019061040592919061058d565b5060408201518160020160006101000a81548160ff021916908315150217905550606082015181600301908051906020019061044292919061058d565b505050505050565b61045261060d565b60018281548110151561046157fe5b90600052602060002090600402016000018054600181600116156101000203166002900480601f0160208091040260200160405190810160405280929190818152602001828054600181600116156101000203166002900480156105065780601f106104db57610100808354040283529160200191610506565b820191906000526020600020905b8154815290600101906020018083116104e957829003601f168201915b50505050509050919050565b60018181548110151561052157fe5b9060005260206000209060040201600091509050806000019080600101908060020160009054906101000a900460ff169080600301905084565b815481835581811511610588576004028160040283600052602060002091820191016105879190610621565b5b505050565b828054600181600116156101000203166002900490600052602060002090601f016020900481019282601f106105ce57805160ff19168380011785556105fc565b828001600101855582156105fc579182015b828111156105fb5782518255916020019190600101906105e0565b5b5090506106099190610684565b5090565b602060405190810160405280600081525090565b61068191905b8082111561067d576000808201600061064091906106a9565b60018201600061065091906106a9565b6002820160006101000a81549060ff021916905560038201600061067491906106a9565b50600401610627565b5090565b90565b6106a691905b808211156106a257600081600090555060010161068a565b5090565b90565b50805460018160011615610100020316600290046000825580601f106106cf57506106ee565b601f0160209004906000526020600020908101906106ed9190610684565b5b505600a165627a7a72305820218f6675bf4d9a16799bb3b92a86775f4b6e1becc2bf3feaa21cc428f61a80a20029",
  "source": "pragma solidity ^0.4.18;\r\n\r\ncontract RefugeeRegister {\r\n\r\n    address creator;\r\n\r\n    struct Refugee {\r\n        string refugeeId;\r\n        string refugeePublicKey;\r\n        bool active;        \r\n        string ipfsHash;\r\n    }\r\n\r\n    ///  map refugee id map to addressess\r\n    \r\n\r\n    Refugee[] public refugees;\r\n    \r\n    function RefugeeRegister() public {\r\n        creator = msg.sender;\r\n    }\r\n\r\n\r\n    function createRefugee(string refugeeId, string refugeePublicKey) public {\r\n        refugees.push(Refugee(refugeeId, refugeePublicKey, true, \"\"));       \r\n    }\r\n\r\n\r\n    function getRefugeeId(uint id) public constant returns (string) {\r\n        return (refugees[id].refugeeId);\r\n    }\r\n}",
  "sourcePath": "C:\\Users\\T460\\Documents\\Hackathon\\DCentral\\contracts\\RefugeeRegister.sol",
  "compiler": {
    "name": "solc",
    "version": "0.4.18+commit.9cf6e910.Emscripten.clang"
  },
  "schemaVersion": "1.0.1",
  "updatedAt": "2018-01-31T15:09:42.405Z"
}