{
  "contractName": "RefugeeRegister",
  "abi": [
    {
      "constant": true,
      "inputs": [
        {
          "name": "",
          "type": "uint256"
        }
      ],
      "name": "Refugees",
      "outputs": [
        {
          "name": "RefugeeId",
          "type": "uint256"
        },
        {
          "name": "FirstName",
          "type": "string"
        },
        {
          "name": "LastName",
          "type": "string"
        },
        {
          "name": "MiddleName",
          "type": "string"
        },
        {
          "name": "Gender",
          "type": "string"
        },
        {
          "name": "DateOfBirth",
          "type": "uint256"
        },
        {
          "name": "Nationality",
          "type": "string"
        },
        {
          "name": "RefugeeStatus",
          "type": "string"
        }
      ],
      "payable": false,
      "stateMutability": "view",
      "type": "function"
    },
    {
      "constant": true,
      "inputs": [
        {
          "name": "",
          "type": "uint256"
        }
      ],
      "name": "RefugeeToOwner",
      "outputs": [
        {
          "name": "",
          "type": "address"
        }
      ],
      "payable": false,
      "stateMutability": "view",
      "type": "function"
    }
  ],
  "bytecode": "0x60606040526010600055600054600a0a600155341561001d57600080fd5b6104d88061002c6000396000f30060606040526004361061004c576000357c0100000000000000000000000000000000000000000000000000000000900463ffffffff16806321193055146100515780638404153a146103c5575b600080fd5b341561005c57600080fd5b6100726004808035906020019091905050610428565b6040518089815260200180602001806020018060200180602001888152602001806020018060200187810387528e81815460018160011615610100020316600290048152602001915080546001816001161561010002031660029004801561011b5780601f106100f05761010080835404028352916020019161011b565b820191906000526020600020905b8154815290600101906020018083116100fe57829003601f168201915b505087810386528d81815460018160011615610100020316600290048152602001915080546001816001161561010002031660029004801561019e5780601f106101735761010080835404028352916020019161019e565b820191906000526020600020905b81548152906001019060200180831161018157829003601f168201915b505087810385528c8181546001816001161561010002031660029004815260200191508054600181600116156101000203166002900480156102215780601f106101f657610100808354040283529160200191610221565b820191906000526020600020905b81548152906001019060200180831161020457829003601f168201915b505087810384528b8181546001816001161561010002031660029004815260200191508054600181600116156101000203166002900480156102a45780601f10610279576101008083540402835291602001916102a4565b820191906000526020600020905b81548152906001019060200180831161028757829003601f168201915b50508781038352898181546001816001161561010002031660029004815260200191508054600181600116156101000203166002900480156103275780601f106102fc57610100808354040283529160200191610327565b820191906000526020600020905b81548152906001019060200180831161030a57829003601f168201915b50508781038252888181546001816001161561010002031660029004815260200191508054600181600116156101000203166002900480156103aa5780601f1061037f576101008083540402835291602001916103aa565b820191906000526020600020905b81548152906001019060200180831161038d57829003601f168201915b50509e50505050505050505050505050505060405180910390f35b34156103d057600080fd5b6103e66004808035906020019091905050610479565b604051808273ffffffffffffffffffffffffffffffffffffffff1673ffffffffffffffffffffffffffffffffffffffff16815260200191505060405180910390f35b60028181548110151561043757fe5b90600052602060002090600802016000915090508060000154908060010190806002019080600301908060040190806005015490806006019080600701905088565b60036020528060005260406000206000915054906101000a900473ffffffffffffffffffffffffffffffffffffffff16815600a165627a7a723058202ed0b2612741fa79f67833414a9067b07577e77d5e7ae3500958a0d5077260c80029",
  "source": "pragma solidity ^0.4.17;\n\ncontract RefugeeRegister {\n\n   // event NewRefugee(uint RefugeeId, string name, uint RefugeeId);\n\n    // uint, default as uint256\n    uint RefugeeIdDigits = 16;\n    // 10 ^ RefugeeIdDigits\n    uint RefugeeIdModulus = 10 ** RefugeeIdDigits;\n\n    struct Refugee {\n        uint RefugeeId;\n        string FirstName;\n\t\tstring LastName;\n\t\tstring MiddleName;\n\t\tstring Gender;\n\t\tuint DateOfBirth;\n\t\tstring Nationality;\n\t\tstring RefugeeStatus;\n    }\n\n    Refugee[] public Refugees;\n\n    mapping (uint => address) public RefugeeToOwner;\n    mapping (address => uint) ownerRefugeeCount;\n\n    function _createRefugee(uint _RefugeeId, string _FirstName, string _LastName, string _MiddleName, string _Gender, uint _DateOfBirth, string _Nationality, string _RefugeeStatus) internal {\n        uint id = Refugees.push(Refugee( _RefugeeId, _FirstName, _LastName, _MiddleName, _Gender, _DateOfBirth, _Nationality, _RefugeeStatus)) - 1;\n        RefugeeToOwner[id] = msg.sender;\n        ownerRefugeeCount[msg.sender]++;\n        //NewRefugee(id, _FirstName, _LastName, _MiddleName, _Gender);\n    }\n\n/*    function _generateRandomRefugeeId(string _FirstName, string _LastName, string _MiddleName, string _Gender) private view returns (uint) {\n        // keccak256 built in, which is a version of SHA3. \n        // A hash function basically maps an input string into a random 256-bit hexidecimal number. \n        // 64 characters\n        uint rand = uint(keccak256(_FirstName, _LastName, _MiddleName, _Gender));\n        return rand % RefugeeIdModulus;\n    }\n\n    function createRandomRefugee(string _FirstName, string _LastName, string _MiddleName, string _Gender) public {\n        require(ownerRefugeeCount[msg.sender] == 0);\n        uint randRefugeeId = _generateRandomRefugeeId(_FirstName, _LastName, _MiddleName, _Gender);\n        randRefugeeId = randRefugeeId - randRefugeeId % 100;\n        _createRefugee(randRefugeeId, _FirstName, _LastName, _MiddleName, _Gender);\n    }\n*/\n}",
  "sourcePath": "/home/rpedro/contracts/RefugeeRegister/contracts/RefugeeRegister.sol",
  "compiler": {
    "name": "solc",
    "version": "0.4.18+commit.9cf6e910.Emscripten.clang"
  },
  "schemaVersion": "1.0.1",
  "updatedAt": "2018-01-29T14:34:34.915Z"
}