{
  "contractName": "RefugeeRegister",
  "abi": [
    {
      "constant": true,
      "inputs": [
        {
          "name": "",
          "type": "uint256"
        }
      ],
      "name": "Refugees",
      "outputs": [
        {
          "name": "RefugeeId",
          "type": "uint256"
        },
        {
          "name": "FirstName",
          "type": "string"
        },
        {
          "name": "LastName",
          "type": "string"
        },
        {
          "name": "MiddleName",
          "type": "string"
        },
        {
          "name": "Gender",
          "type": "string"
        },
        {
          "name": "DateOfBirth",
          "type": "uint256"
        },
        {
          "name": "Nationality",
          "type": "string"
        },
        {
          "name": "RefugeeStatus",
          "type": "string"
        }
      ],
      "payable": false,
      "stateMutability": "view",
      "type": "function"
    },
    {
      "constant": false,
      "inputs": [
        {
          "name": "_RefugeeId",
          "type": "uint256"
        },
        {
          "name": "_FirstName",
          "type": "string"
        },
        {
          "name": "_LastName",
          "type": "string"
        },
        {
          "name": "_MiddleName",
          "type": "string"
        },
        {
          "name": "_Gender",
          "type": "string"
        },
        {
          "name": "_DateOfBirth",
          "type": "uint256"
        },
        {
          "name": "_Nationality",
          "type": "string"
        },
        {
          "name": "_RefugeeStatus",
          "type": "string"
        }
      ],
      "name": "_createRefugee",
      "outputs": [
        {
          "name": "",
          "type": "uint256"
        }
      ],
      "payable": false,
      "stateMutability": "nonpayable",
      "type": "function"
    },
    {
      "constant": true,
      "inputs": [
        {
          "name": "",
          "type": "uint256"
        }
      ],
      "name": "RefugeeToOwner",
      "outputs": [
        {
          "name": "",
          "type": "address"
        }
      ],
      "payable": false,
      "stateMutability": "view",
      "type": "function"
    }
  ],
  "bytecode": "0x6060604052341561000f57600080fd5b610a448061001e6000396000f300606060405260043610610057576000357c0100000000000000000000000000000000000000000000000000000000900463ffffffff168063211930551461005c57806328ba5f95146103d05780638404153a146105a2575b600080fd5b341561006757600080fd5b61007d6004808035906020019091905050610605565b6040518089815260200180602001806020018060200180602001888152602001806020018060200187810387528e8181546001816001161561010002031660029004815260200191508054600181600116156101000203166002900480156101265780601f106100fb57610100808354040283529160200191610126565b820191906000526020600020905b81548152906001019060200180831161010957829003601f168201915b505087810386528d8181546001816001161561010002031660029004815260200191508054600181600116156101000203166002900480156101a95780601f1061017e576101008083540402835291602001916101a9565b820191906000526020600020905b81548152906001019060200180831161018c57829003601f168201915b505087810385528c81815460018160011615610100020316600290048152602001915080546001816001161561010002031660029004801561022c5780601f106102015761010080835404028352916020019161022c565b820191906000526020600020905b81548152906001019060200180831161020f57829003601f168201915b505087810384528b8181546001816001161561010002031660029004815260200191508054600181600116156101000203166002900480156102af5780601f10610284576101008083540402835291602001916102af565b820191906000526020600020905b81548152906001019060200180831161029257829003601f168201915b50508781038352898181546001816001161561010002031660029004815260200191508054600181600116156101000203166002900480156103325780601f1061030757610100808354040283529160200191610332565b820191906000526020600020905b81548152906001019060200180831161031557829003601f168201915b50508781038252888181546001816001161561010002031660029004815260200191508054600181600116156101000203166002900480156103b55780601f1061038a576101008083540402835291602001916103b5565b820191906000526020600020905b81548152906001019060200180831161039857829003601f168201915b50509e50505050505050505050505050505060405180910390f35b34156103db57600080fd5b61058c600480803590602001909190803590602001908201803590602001908080601f0160208091040260200160405190810160405280939291908181526020018383808284378201915050505050509190803590602001908201803590602001908080601f0160208091040260200160405190810160405280939291908181526020018383808284378201915050505050509190803590602001908201803590602001908080601f0160208091040260200160405190810160405280939291908181526020018383808284378201915050505050509190803590602001908201803590602001908080601f0160208091040260200160405190810160405280939291908181526020018383808284378201915050505050509190803590602001909190803590602001908201803590602001908080601f0160208091040260200160405190810160405280939291908181526020018383808284378201915050505050509190803590602001908201803590602001908080601f01602080910402602001604051908101604052809392919081815260200183838082843782019150505050505091905050610656565b6040518082815260200191505060405180910390f35b34156105ad57600080fd5b6105c36004808035906020019091905050610837565b604051808273ffffffffffffffffffffffffffffffffffffffff1673ffffffffffffffffffffffffffffffffffffffff16815260200191505060405180910390f35b60008181548110151561061457fe5b90600052602060002090600802016000915090508060000154908060010190806002019080600301908060040190806005015490806006019080600701905088565b60008060016000805480600101828161066f919061086a565b91600052602060002090600802016000610100604051908101604052808f81526020018e81526020018d81526020018c81526020018b81526020018a81526020018981526020018881525090919091506000820151816000015560208201518160010190805190602001906106e592919061089c565b50604082015181600201908051906020019061070292919061089c565b50606082015181600301908051906020019061071f92919061089c565b50608082015181600401908051906020019061073c92919061089c565b5060a0820151816005015560c082015181600601908051906020019061076392919061089c565b5060e082015181600701908051906020019061078092919061089c565b505050039050336001600083815260200190815260200160002060006101000a81548173ffffffffffffffffffffffffffffffffffffffff021916908373ffffffffffffffffffffffffffffffffffffffff160217905550600260003373ffffffffffffffffffffffffffffffffffffffff1673ffffffffffffffffffffffffffffffffffffffff168152602001908152602001600020600081548092919060010191905055508991505098975050505050505050565b60016020528060005260406000206000915054906101000a900473ffffffffffffffffffffffffffffffffffffffff1681565b81548183558181151161089757600802816008028360005260206000209182019101610896919061091c565b5b505050565b828054600181600116156101000203166002900490600052602060002090601f016020900481019282601f106108dd57805160ff191683800117855561090b565b8280016001018555821561090b579182015b8281111561090a5782518255916020019190600101906108ef565b5b50905061091891906109ab565b5090565b6109a891905b808211156109a45760008082016000905560018201600061094391906109d0565b60028201600061095391906109d0565b60038201600061096391906109d0565b60048201600061097391906109d0565b600582016000905560068201600061098b91906109d0565b60078201600061099b91906109d0565b50600801610922565b5090565b90565b6109cd91905b808211156109c95760008160009055506001016109b1565b5090565b90565b50805460018160011615610100020316600290046000825580601f106109f65750610a15565b601f016020900490600052602060002090810190610a1491906109ab565b5b505600a165627a7a72305820cd4a2635d27c745a204fe2b19c2012e2d0323715d5cc5c1b112012d0afbbdb9c0029",
  "source": "pragma solidity ^0.4.17;\n\ncontract RefugeeRegister {\n\n    struct Refugee {\n        uint RefugeeId;\n        string FirstName;\n\t\tstring LastName;\n\t\tstring MiddleName;\n\t\tstring Gender;\n\t\tuint DateOfBirth;\n\t\tstring Nationality;\n\t\tstring RefugeeStatus;\n    }\n\n    Refugee[] public Refugees;\n    \n    mapping (uint => address) public RefugeeToOwner;\n    mapping (address => uint) ownerRefugeeCount;\n\n    function _createRefugee(uint _RefugeeId, string _FirstName, string _LastName, string _MiddleName, string _Gender, uint _DateOfBirth, string _Nationality, string _RefugeeStatus) public returns (uint) {\n        uint id = Refugees.push(Refugee( _RefugeeId, _FirstName, _LastName, _MiddleName, _Gender, _DateOfBirth, _Nationality, _RefugeeStatus)) - 1;\n        RefugeeToOwner[id] = msg.sender;\n        ownerRefugeeCount[msg.sender]++;\n       \n        return _RefugeeId;\n    }\n}",
  "sourcePath": "/home/rpedro/contracts/RefugeeRegister/contracts/RefugeeRegister.sol",
  "compiler": {
    "name": "solc",
    "version": "0.4.18+commit.9cf6e910.Emscripten.clang"
  },
  "schemaVersion": "1.0.1",
  "updatedAt": "2018-01-29T15:46:48.597Z"
}