{
  "contractName": "RefugeeRegister",
  "abi": [
    {
      "constant": false,
      "inputs": [
        {
          "name": "_refugeeId",
          "type": "string"
        },
        {
          "name": "_refugeePublicKey",
          "type": "string"
        },
        {
          "name": "_ipfsHash",
          "type": "string"
        }
      ],
      "name": "createRefugee",
      "outputs": [],
      "payable": false,
      "stateMutability": "nonpayable",
      "type": "function"
    },
    {
      "constant": true,
      "inputs": [],
      "name": "getRefugeeId",
      "outputs": [
        {
          "name": "",
          "type": "string"
        }
      ],
      "payable": false,
      "stateMutability": "view",
      "type": "function"
    },
    {
      "constant": true,
      "inputs": [
        {
          "name": "",
          "type": "uint256"
        }
      ],
      "name": "refugees",
      "outputs": [
        {
          "name": "refugeeId",
          "type": "string"
        },
        {
          "name": "refugeePublicKey",
          "type": "string"
        },
        {
          "name": "active",
          "type": "bool"
        },
        {
          "name": "ipfsHash",
          "type": "string"
        }
      ],
      "payable": false,
      "stateMutability": "view",
      "type": "function"
    },
    {
      "inputs": [],
      "payable": false,
      "stateMutability": "nonpayable",
      "type": "constructor"
    }
  ],
  "bytecode": "0x6060604052341561000f57600080fd5b336000806101000a81548173ffffffffffffffffffffffffffffffffffffffff021916908373ffffffffffffffffffffffffffffffffffffffff1602179055506107428061005e6000396000f300606060405260043610610057576000357c0100000000000000000000000000000000000000000000000000000000900463ffffffff16806321b8ff9c1461005c57806333193c961461013f5780639a180f7e146101cd575b600080fd5b341561006757600080fd5b61013d600480803590602001908201803590602001908080601f0160208091040260200160405190810160405280939291908181526020018383808284378201915050505050509190803590602001908201803590602001908080601f0160208091040260200160405190810160405280939291908181526020018383808284378201915050505050509190803590602001908201803590602001908080601f016020809104026020016040519081016040528093929190818152602001838380828437820191505050505050919050506103a3565b005b341561014a57600080fd5b610152610470565b6040518080602001828103825283818151815260200191508051906020019080838360005b83811015610192578082015181840152602081019050610177565b50505050905090810190601f1680156101bf5780820380516001836020036101000a031916815260200191505b509250505060405180910390f35b34156101d857600080fd5b6101ee6004808035906020019091905050610537565b60405180806020018060200185151515158152602001806020018481038452888181546001816001161561010002031660029004815260200191508054600181600116156101000203166002900480156102895780601f1061025e57610100808354040283529160200191610289565b820191906000526020600020905b81548152906001019060200180831161026c57829003601f168201915b505084810383528781815460018160011615610100020316600290048152602001915080546001816001161561010002031660029004801561030c5780601f106102e15761010080835404028352916020019161030c565b820191906000526020600020905b8154815290600101906020018083116102ef57829003601f168201915b505084810382528581815460018160011615610100020316600290048152602001915080546001816001161561010002031660029004801561038f5780601f106103645761010080835404028352916020019161038f565b820191906000526020600020905b81548152906001019060200180831161037257829003601f168201915b505097505050505050505060405180910390f35b600180548060010182816103b79190610580565b91600052602060002090600402016000608060405190810160405280878152602001868152602001600115158152602001858152509091909150600082015181600001908051906020019061040d9291906105b2565b50602082015181600101908051906020019061042a9291906105b2565b5060408201518160020160006101000a81548160ff02191690831515021790555060608201518160030190805190602001906104679291906105b2565b50505050505050565b610478610632565b6001600081548110151561048857fe5b90600052602060002090600402016000018054600181600116156101000203166002900480601f01602080910402602001604051908101604052809291908181526020018280546001816001161561010002031660029004801561052d5780601f106105025761010080835404028352916020019161052d565b820191906000526020600020905b81548152906001019060200180831161051057829003601f168201915b5050505050905090565b60018181548110151561054657fe5b9060005260206000209060040201600091509050806000019080600101908060020160009054906101000a900460ff169080600301905084565b8154818355818115116105ad576004028160040283600052602060002091820191016105ac9190610646565b5b505050565b828054600181600116156101000203166002900490600052602060002090601f016020900481019282601f106105f357805160ff1916838001178555610621565b82800160010185558215610621579182015b82811115610620578251825591602001919060010190610605565b5b50905061062e91906106a9565b5090565b602060405190810160405280600081525090565b6106a691905b808211156106a2576000808201600061066591906106ce565b60018201600061067591906106ce565b6002820160006101000a81549060ff021916905560038201600061069991906106ce565b5060040161064c565b5090565b90565b6106cb91905b808211156106c75760008160009055506001016106af565b5090565b90565b50805460018160011615610100020316600290046000825580601f106106f45750610713565b601f01602090049060005260206000209081019061071291906106a9565b5b505600a165627a7a7230582026caa6a5f541984acd699d142a59dc1740a33986c5e0861fd532c7598f0677f00029",
  "source": "pragma solidity ^0.4.18;\n\ncontract RefugeeRegister {\n\n    address creator;\n\n    struct Refugee {\n        string refugeeId;\n        string refugeePublicKey;\n\t\tbool active;        \n        string ipfsHash;\n    }\n\n\n    Refugee[] public refugees;\n    \n    function RefugeeRegister() public {\n        creator = msg.sender;\n    }\n\n\n    function createRefugee(string _refugeeId, string _refugeePublicKey, string _ipfsHash) public {\n        refugees.push(Refugee(_refugeeId, _refugeePublicKey, true, _ipfsHash));       \n    }\n\n\n    function getRefugeeId() public constant returns (string) {\n        return (refugees[0].refugeeId);\n    }\n}",
  "sourcePath": "/Users/emma/Documents/DCentral/contracts/RefugeeRegister.sol",
  "compiler": {
    "name": "solc",
    "version": "0.4.18+commit.9cf6e910.Emscripten.clang"
  },
  "schemaVersion": "1.0.1",
  "updatedAt": "2018-01-31T18:35:51.099Z"
}